:100000000C9462000C948A000C948A000C948A0070
:100010000C948A000C948A000C948A000C94F601CB
:100020000C948A000C948A000C948A000C948A0028
:100030000C948A000C948A000C948A000C948A0018
:100040000C947B040C948A000C94C4010C949E01C3
:100050000C948A000C948A000C948A000C948A00F8
:100060000C948A000C948A000000000023002600F3
:10007000290000000000240027002A0000000000E2
:10008000250028002B0004040404040404040202D4
:100090000202020203030303030301020408102007
:1000A0004080010204081020010204081020000012
:1000B0000008000201000003040700000000000027
:1000C0000000B90C11241FBECFEFD8E0DEBFCDBFBA
:1000D00011E0A0E0B1E0E4EBFFE102C005900D9279
:1000E000A231B107D9F722E0A2E1B1E001C01D922F
:1000F000AE39B207E1F710E0C2E6D0E004C02197C4
:10010000FE010E94940DC136D107C9F70E94C504B3
:100110000C94D80F0C940000CF92DF92EF92FF92D4
:100120000F931F93CF93DF936C017A018B01C0E093
:10013000D0E0CE15DF0581F0D8016D918D01D6019B
:10014000ED91FC910190F081E02DC6010995892B7C
:1001500011F02196EECF7E01C701DF91CF911F9163
:100160000F91FF90EF90DF90CF900895089580E079
:1001700090E00895FC01538D448D252F30E0842FAD
:1001800090E0821B930B541710F0CF9608950197BF
:100190000895FC01918D828D981761F0828DDF01A9
:1001A000A80FB11D5D968C91928D9F5F9F73928F6A
:1001B00090E008958FEF9FEF0895FC01918D828D5F
:1001C000981731F0828DE80FF11D858D90E008952C
:1001D0008FEF9FEF0895FC01918D228D892F90E084
:1001E000805C9F4F821B91098F739927089585E248
:1001F00091E00E94EB0021E0892B09F420E0822F9E
:100200000895FC01848DDF01A80FB11DA35ABF4FD3
:100210002C91848D90E001968F739927848FA68905
:10022000B7892C93A089B1898C91837080648C9359
:10023000938D848D981306C00288F389E02D808108
:100240008F7D80830895EF92FF920F931F93CF933A
:10025000DF93EC0181E0888F9B8D8C8D981305C016
:10026000E889F989808185FD26C0F62E0B8D10E086
:100270000F5F1F4F0F731127E02E8C8DE8120CC0FB
:100280000FB607FCFACFE889F989808185FFF5CFA1
:10029000CE010E940101F1CF8B8DFE01E80FF11D0F
:1002A000E35AFF4FF0829FB7F8940B8FEA89FB89DE
:1002B000808180620AC09FB7F894EE89FF896083CD
:1002C000E889F98980818370806480839FBF81E0A1
:1002D00090E0DF91CF911F910F91FF90EF900895E3
:1002E000CF93DF93EC01888D8823C9F0EA89FB89DD
:1002F000808185FD05C0A889B9898C9186FD0FC0D4
:100300000FB607FCF5CF808185FFF2CFA889B989A8
:100310008C9185FFEDCFCE010E940101E7CFDF91E7
:10032000CF91089580E090E0892B29F00E94F7009A
:1003300081110C94000008950E94D30F1F920F9218
:100340000FB60F9211242F933F934F935F936F93A8
:100350007F938F939F93AF93BF93EF93FF9385E228
:1003600091E00E940101FF91EF91BF91AF919F91A8
:100370008F917F916F915F914F913F912F910F904E
:100380000FBE0F901F9018951F920F920FB60F92ED
:1003900011242F938F939F93EF93FF93E091350157
:1003A000F09136018081E0913B01F0913C0182FDAA
:1003B00012C0908180913E018F5F8F7320913F0129
:1003C000821751F0E0913E01F0E0EB5DFE4F958F1A
:1003D00080933E0101C08081FF91EF919F918F91A9
:1003E0002F910F900FBE0F901F9018951F920F9294
:1003F0000FB60F9211242F933F934F935F936F93F8
:100400007F938F939F93AF93BF93CF93DF93EF939C
:10041000FF932091C30130E0F901E255FF4F849131
:10042000F901E656FF4FD491F901EA57FF4FC49105
:10043000CC2379F081110E948D03EC2FF0E0EE0FB8
:10044000FF1FE859FF4FA591B491EC91ED2381E096
:1004500009F480E02091C7013091C8012F5F3F4F20
:100460003093C8012093C7019091C601953618F0CA
:1004700096E09093C2019091C2019430C9F128F4A2
:10048000923069F09330D1F05EC0953009F451C0DC
:10049000963009F058C091E09093930251C08111B9
:1004A00052C02091C7013091C8012436310508F4AB
:1004B00042C0109293021092C6011CC0813009F014
:1004C00042C0E091C60191E09E0F9093C601F0E01A
:1004D0002091C7013091C801EE0FFF1FEE53FE4F70
:1004E000308727831092C8011092C70194E029C079
:1004F000811117C0E091C60191E09E0F9093C60153
:10050000F0E02091C7013091C801EE0FFF1FEE53BC
:10051000FE4F308727831092C8011092C70193E0E5
:1005200010C02091C7013091C8012536310558F01F
:1005300007C0811108C01092C8011092C70103C002
:1005400095E09093C2019091C5019923B9F0811172
:100550000AC08091C401882321F08091C40161E028
:1005600009C02D9A0BC08091C401882331F080917D
:10057000C40160E00E94B60301C02D98FF91EF9185
:10058000DF91CF91BF91AF919F918F917F916F91AB
:100590005F914F913F912F910F900FBE0F901F9041
:1005A0001895CF92DF92EF92FF92CF93DF93EC01F9
:1005B000072E000C880B990B0E94B60E6B017C0174
:1005C00020E030E040E45FE30E94660F20E030E08E
:1005D00048E452E40E940C0E0E947E0EC617D70714
:1005E000D4F020E030E040EA5FE3C701B6010E94AA
:1005F000660F20E030E048E452E40E940C0E20E058
:1006000030E040E85FE30E949B0D0E947E0E21E0F7
:100610006C177D070CF420E0822F90E0DF91CF91E2
:10062000FF90EF90DF90CF9008958F929F92AF92BE
:10063000BF92CF92DF92EF92FF920F931F93CF93CF
:10064000DF93FC0120813181E0912101F0912201B1
:100650002E173F070CF04FC0F901EE0FFF1FA091BE
:100660001F01B0912001EA0FFB1FA080B180217013
:1006700033276901F1E0CF26232B19F42CE93FEF52
:1006800002C024E630E07A018B01EC014901840EBE
:10069000951EB401C5010E94D102892B99F48E0CDC
:1006A0009F1CB401C5010E94D102892B71F4B701CE
:1006B000680D791DC5010E94D102892BF9F023E054
:1006C00030E005C021E030E002C022E030E0F80177
:1006D000808191810196821793071CF49183808316
:1006E00008C0F8011182108288819981019699834E
:1006F0008883C60105C081E090E002C08FEF9FEFC4
:10070000DF91CF911F910F91FF90EF90DF90CF90ED
:10071000BF90AF909F908F900895833081F028F420
:10072000813099F08230A1F008958730A9F08830A7
:10073000B9F08430D1F4809180008F7D03C0809126
:1007400080008F7780938000089584B58F7702C0F2
:1007500084B58F7D84BD08958091B0008F7703C0EC
:100760008091B0008F7D8093B00008951F93CF9348
:10077000DF93282F30E0F901E255FF4F8491F90112
:10078000E656FF4FD491F901EA57FF4FC491CC23AD
:10079000C1F0162F81110E948D03EC2FF0E0EE0FB7
:1007A000FF1FE458FF4FA591B4919FB7F894111122
:1007B00004C08C91D095D82302C0EC91DE2BDC9341
:1007C0009FBFDF91CF911F910895CF93DF9390E06A
:1007D000FC01E656FF4F2491FC01EA57FF4F84913C
:1007E000882361F190E0880F991FFC01EE58FF4FBC
:1007F000C591D491FC01E458FF4FA591B4916111CA
:1008000009C09FB7F8948881209582238883EC9152
:100810002E230BC0623061F49FB7F8948881322F89
:10082000309583238883EC912E2B2C939FBF06C099
:100830008FB7F894E8812E2B28838FBFDF91CF915B
:100840000895CF93DF93EC0161E085E00E94E5031A
:10085000209711F460E004C0CF3FD10531F461E08E
:1008600085E0DF91CF910C94B603E3EBF0E0E491E7
:10087000E330F9F048F4E130B9F0E230A1F584B5A5
:10088000806284BDC8BD34C0E730E9F0E83019F1BA
:10089000E43049F580918000806280938000D0939D
:1008A0008B00C0938A0024C084B5806884BDC7BD16
:1008B0001FC080918000806880938000D093890061
:1008C000C093880015C08091B00080688093B0000C
:1008D000C093B3000DC08091B00080628093B000DF
:1008E000C093B40005C0C038D1050CF0B8CFB2CF6A
:1008F000DF91CF9108951F920F920FB60F9211249E
:100900002F933F938F939F93AF93BF9380919A02BE
:1009100090919B02A0919C02B0919D02309199020E
:1009200023E0230F2D3720F40196A11DB11D05C032
:1009300026E8230F0296A11DB11D209399028093F2
:100940009A0290939B02A0939C02B0939D02809187
:10095000950290919602A0919702B091980201960B
:10096000A11DB11D8093950290939602A0939702CA
:10097000B0939802BF91AF919F918F913F912F912A
:100980000F900FBE0F901F901895CF93DF93CDB7A8
:10099000DEB72C970FB6F894DEBF0FBECDBF7894AC
:1009A00084B5826084BD84B5816084BD85B5826074
:1009B00085BD85B5816085BD80916E008160809325
:1009C0006E0010928100809181008260809381008E
:1009D000809181008160809381008091800081609E
:1009E000809380008091B10084608093B1008091F9
:1009F000B00081608093B00080917A008460809321
:100A00007A0080917A00826080937A0080917A00E7
:100A1000816080937A0080917A00806880937A0068
:100A20001092C100E0913501F091360182E080839F
:100A3000E0913101F09132011082E0913301F091A7
:100A400034019FEC908310923D01E0913901F091C7
:100A50003A0196E09083E0913701F091380190815E
:100A600090619083E0913701F09138019081986016
:100A70009083E0913701F0913801908190689083E4
:100A8000E0913701F091380190819F7D9083F89437
:100A90008093B0008093B10094E69093B3001092DD
:100AA000B2008093700078948093C2011092C601C6
:100AB0008091C30160E00E94E50381E08093C5015D
:100AC00061E08DE00E94E50361E086E00E94E503BD
:100AD00060E086E00E94B60310E2212E312C44240F
:100AE0004A94542C320129EC31E0309320012093B8
:100AF0001F018091C60190E0909322018093210113
:100B00008091930290E0909324018093230180913F
:100B1000C201853009F00DC18091CB019091CC01CB
:100B2000885891098D35910588F48091C6018430EB
:100B300041F48091CD019091CE018097479708F4C0
:100B400037C18091C601843408F019C18091C60173
:100B50008A3108F493C18091C9019091CA01843F00
:100B6000914078F410921E0110921D0140921901DB
:100B700050921A0160921B0170921C018BE090E070
:100B8000F3C68091CB019091CC0185974B9708F0EB
:100B900075C1EFECF1E082E090E0C12CD12C760140
:100BA000AC014F5F5F4F2091C60130E04217530701
:100BB0005CF4DF0112972D913C91275031092730C9
:100BC000310508F43FC1CA01019795958795909327
:100BD0001E0180931D010C972CF410921E0110929F
:100BE0001D014CC1C0921901D0921A01E0921B0163
:100BF000F0921C0184E090E00AC0C0921901D092EA
:100C00001A01E0921B01F0921C018BE090E090939E
:100C10001601809315018091190190911A01A091FC
:100C20001B01B0911C018C3038E09307A105B10580
:100C300009F449C0F0F481319105A105B10509F429
:100C400051C058F48C309105A105B105E1F14097F0
:100C5000A105B10509F44EC067C080329105A10518
:100C6000B10509F456C08197A105B10509F458C032
:100C70005BC08032F8E09F07A105B10509F449C0C7
:100C800060F4803138E09307A105B10599F1813115
:100C90009840A105B10531F147C08E3DF6EF9F07A1
:100CA000F1E1AF07F4EBBF07A9F08F3228E092071C
:100CB00023E5A2072DEDB20769F081329840A10526
:100CC000B10571F131C061E086E00E94B603109277
:100CD00014012AC060E086E00E94B60381E08093A0
:100CE000140122C08091120190911301019797FD88
:100CF00017C00AC0809112019091130101968531AD
:100D0000910514F084E190E0909313018093120117
:100D10000BC0A4E1B0E0B0931301A093120104C092
:100D2000109213011092120182E08093C20110927E
:100D3000C6018091140181111BC080911201909114
:100D40001301889FD001899FB00DB00D11242FEFA2
:100D500030E00E94560D20E931E040E050E00E9472
:100D6000EB0CC90101978E3F910520F0C90102C02B
:100D700080E090E00E9421040E949201B4CE809114
:100D8000CD019091CE01825491098E9708F0DECE6C
:100D900080E090E040E050E0BA01FC01E153FE4FFA
:100DA000208131812950310929303105C0F0CECE62
:100DB0008091CF019091D0010997099708F0C1CE99
:100DC00010921E0110921D014092190150921A01B9
:100DD00060921B0170921C0183E090E0C5C5FC018C
:100DE000EF52FE4F208131812751310922313105E7
:100DF000E0F4440F551F661F771F4160049680384A
:100E0000910559F630921E0120921D01409319015F
:100E100050931A0160931B0170931C01A3E0B0E092
:100E2000B0931601A0931501F6CE20813181265092
:100E300031092730310508F089CE440F551F661F50
:100E4000771FDCCF20813181235131092F303105CB
:100E500048F4CC0CDD1CEE1CFF1C6894C0F8029614
:100E600034969ECE208131812A50310929303105B6
:100E700028F4CC0CDD1CEE1CFF1CF1CF8091C601C8
:100E80008A3108F45AC08091C9019091CA01803218
:100E9000934008F467CE8091CB019091CC01C69726
:100EA000869708F04AC08091CD019091CE01C697F7
:100EB000869708F042C0E1EDF1E023E030E0C12C7C
:100EC000D12C7601C90101964091C60150E08417EA
:100ED000950754F4DF0112974D915C914C505109E4
:100EE0004B30510588F001C0C90101979595879550
:100EF00090931E0180931D010C970CF07ECE1092F2
:100F00001E0110921D0119C08081918185974B9718
:100F100050F4CC0CDD1CEE1CFF1C6894C0F82E5F56
:100F20003F4F3496CFCF808191810C970A9728F458
:100F3000CC0CDD1CEE1CFF1CF2CF8091C60182326E
:100F400008F458C08091CB019091CC010697079787
:100F500008F050C0EFECF1E082E090E0C12CD12C21
:100F600076019C012F5F3F4F4091C60150E024174E
:100F70003507CCF4DF0112974D915C9111974E51DA
:100F800051094731510540F5CC0CDD1CEE1CFF1C0E
:100F90006894C0F8408151813496435051094530DE
:100FA000510530F1C90101979595879590931E01E0
:100FB00080931D0140972CF410921E0110921D0188
:100FC00019C0C0921901D0921A01E0921B01F0924F
:100FD0001C018CE090E01BCE4D915C914C5051096E
:100FE0004B30510538F4CC0CDD1CEE1CFF1CD2CF6D
:100FF0000296B7CF1C821B82E1E0F0E0FA83E9831E
:101000008091C6018D3078F41C821B8221E030E093
:101010003A832983809121019091220118161906A3
:101020000CF46CC0C3C049E753E0BE016D5F7F4F55
:10103000CE0101960E941503892B31F749E753E051
:10104000BE016D5F7F4FCE0101960E94150301978F
:10105000D9F649E753E0BE016D5F7F4FCE0101969F
:101060000E941503892B81F6812C912C540100E0FC
:1010700010E08091C60190E029813A812817390754
:1010800074F549E753E0BE016D5F7F4FCE010196D5
:101090000E9415037C0149E753E0BE016D5F7F4F5D
:1010A000CE0101960E94150331E0E316F10451F4DC
:1010B000892B09F0A9CF880C991CAA1CBB1C689429
:1010C00080F80AC0EF2809F09FCF019709F09CCF64
:1010D000880C991CAA1CBB1C0F5F1F4FCACF109312
:1010E0001E0100931D018092190190921A01A09295
:1010F0001B01B0921C0181E090E089CDE0911F01BD
:10110000F091200182E090E09A838983828193812B
:1011100089974E9708F04AC023E030E03A8329834C
:10112000848195810B970A9708F040C04CEB51E001
:10113000BE016D5F7F4FCE0101960E941503892B82
:10114000A9F54CEB51E0BE016D5F7F4FCE010196DA
:101150000E941503019751F5812C912C540100E058
:1011600010E0209121013091220189819A8182171A
:1011700093070CF026C14CEB51E0BE016D5F7F4F31
:10118000CE0101960E9415037C010330110509F080
:10119000E2C04CEB51E0BE016D5F7F4FCE01019686
:1011A0000E941503E816F90609F4D5C0E0911F0165
:1011B000F091200182819381C6978697E0F4848123
:1011C00095814B974597B8F4DF0116967F0136EC71
:1011D000E30EF11C20E030E040E050E060E070E021
:1011E00080E090E00D911C91119709501109083091
:1011F000110508F4F5C08091C601893370F1828130
:101200009381895791098335910508F425C125C03B
:10121000D90112966D917C911397665171096131D4
:10122000710508F045C1D701C601880F991FAA1F93
:10123000BB1F6C017D016894C0F84E5F5F4F2C5F4F
:101240003F4F4B33510509F416C1D9016D917C9183
:101250006A50710969307105D8F28091C6018232F5
:1012600031F4828193810A97099708F431C1828110
:1012700093818957910983359105D0F48091C601F6
:101280008132B0F084819581CA97899788F49F0153
:101290002A5F3F4FC12CD12C760143E050E0D901A9
:1012A0006D917C916A5071096930710508F42EC105
:1012B000828193818C549109C59778F48091C601FD
:1012C000843031F4848195818097479708F480C1F8
:1012D0008091C601843408F062C18091C6018634D1
:1012E00060F1828193810C970B9708F4BEC125C0F1
:1012F000D90112966D917C9113976E5171096731E6
:10130000710508F0E8C1D701C601880F991FAA1F0F
:10131000BB1F6C017D016894C0F84E5F5F4F2C5F6E
:101320003F4F4534510509F4BBC1D9016D917C9102
:101330006C5071096B307105D8F28091C601883507
:1013400008F431C282819381855891098B359105CA
:1013500008F4D1C128C24CEB51E0BE016D5F7F4F54
:10136000CE0101960E9415036C010330110569F44A
:101370004CEB51E0BE016D5F7F4FCE0101960E94A4
:101380001503C816D90609F011CFE114F10459F478
:10139000CA94CD2809F00ACF880C991CAA1CBB1C42
:1013A000689480F80BC0EA94EF2809F0FFCECD28AE
:1013B00009F0FCCE880C991CAA1CBB1C0F5F1F4FA8
:1013C000D0CE10931E0100931D01809219019092BE
:1013D0001A01A0921B01B0921C0182E090E017CC90
:1013E00012960D911C911397015111090D301105A1
:1013F00028F501E00E945D0D21601496AE15BF0531
:1014000009F0F0CE2093190130931A0140931B018B
:1014100050931C0100E20E94780D20931701309335
:101420001801E5E0F0E0F0931601E093150120E3E8
:1014300030E030931E0120931D01EDCB12960D91EB
:101440001C911397045011090530110508F0D3CEF3
:1014500001E00E945D0DD1CF84819581CA97899763
:1014600008F0FBCE9F012A5F3F4FC12CD12C7601A3
:1014700043E050E0EACE9F012A583F4FD9012D9119
:101480003C912A5031092930310508F0E6CE2CE193
:1014900030E030931E0120931D01C0921901D092BB
:1014A0001A01E0921B01F0921C018AE090E0AFCBA0
:1014B000D90112966D917C9113976650710967302E
:1014C000710508F0CACECC0CDD1CEE1CFF1CB5CE9D
:1014D0002091C601CF01820F911D820F911DDC0169
:1014E00012978D919C910A97099708F0C0CE10929F
:1014F0001E0110921D014092190150921A01609232
:101500001B0170921C0186E090E02EC2D901129658
:101510006D917C911397665171096131710578F570
:10152000D701C601880F991FAA1FBB1F6C017D013F
:101530006894C0F84E5F5F4F2C5F3F4F43325105B8
:1015400009F0ADCE9F012A5B3F4FD9012D913C910F
:101550002A5031092930310508F0AACEE0E1F0E047
:10156000F0931E01E0931D01C0921901D0921A015F
:10157000E0921B01F0921C0186E090E048CBD9017B
:1015800012966D917C9113976650710967307105C1
:1015900008F08ECECC0CDD1CEE1CFF1CCBCF848162
:1015A000958189549109C39708F097CE9F012A5FCE
:1015B0003F4FBF016A577F4FC12CD12C7601D90113
:1015C0004D915C914950510949305105B0F085CE9B
:1015D000868197810997099708F07ACE10921E01AB
:1015E00010921D014092190150921A0160921B0144
:1015F00070921C0187E090E0B7C1D90112964D911D
:101600005C9113974651510941315105F0F4D701CE
:10161000C601880F991FAA1FBB1F6C017D0168942A
:10162000C0F82C5F3F4F2617370749F630921E014E
:1016300020921D01C0921901D0921A01E0921B0163
:10164000F0921C0187E090E0E2CAD90112964D9118
:101650005C911397465051094730510508F03DCE33
:10166000CC0CDD1CEE1CFF1CDCCF8481958109971E
:10167000099708F062CE868197818C974F9708F082
:101680005CCE8085918589974D9708F056CE9F0155
:10169000265F3F4FC12CD12C760145E050E045CE6E
:1016A0009F0126573F4FD9012D913C912C50310974
:1016B0002B30310508F041CE30921E0120921D01E1
:1016C000C0921901D0921A01E0921B01F0921C0104
:1016D00088E090E09CCAD90112966D917C91139795
:1016E000695071096930710508F027CECC0CDD1CFA
:1016F000EE1CFF1C12CE84819581825491098E9735
:1017000008F051C08F01045C1F4F8DE190E020E094
:1017100030E04091C60150E04450510984179507CC
:10172000ACF4A80142505109DA014D915C91495045
:1017300051094830510510F136C0D8014D915C91E6
:10174000485151094231510558F1CB010197959506
:10175000879590931E0180931D018A9724F1C901FA
:10176000330FAA0BBB0B8093190190931A01A0931E
:101770001B01B0931C0189E090E049CABC016F5F76
:101780007F4FD8014D915C91475051094730510529
:10179000A0F6220F331F216002960C5F1F4FB9CFB6
:1017A000220F331FF9CF8091C6018032E1F482818C
:1017B000938106970697B8F48481958109970997D4
:1017C00090F49F012A5F3F4FBF01625C7F4FC12CA5
:1017D000D12C7601D9014D915C914650510946308A
:1017E000510508F486C020912101309122013887EB
:1017F0002F83263031050CF497CA8F010E5F1F4FDF
:1018000095ECC92E9DE9D92E9CE1E92E91E8F92E9F
:1018100083E090E09E838D83D80114966D917C9136
:101820001597AD90BC9080E090E00E94B40E69875F
:101830007A878B879C87B50180E090E00E94B40E88
:101840004B015C012DEC3CEC4CE45FE30E94660F25
:101850009B01AC0169857A858B859C850E94070E6A
:1018600087FD19C02DEC3CEC4CE45FE369857A857B
:101870008B859C850E94660F9B01AC01C501B4015C
:101880000E94070EE82F880FFF0BEE27FF0FEE1FB9
:10189000FF27319602C0E0E0F0E0A701960163E97E
:1018A00071E080E091E00E94460D6F01FF0FEE08AD
:1018B000FF08C626D726E826F926ED81FE81319657
:1018C000FE83ED830E5F1F4F2F813885E217F307EC
:1018D00009F0A2CFC0921901D0921A01E0921B0127
:1018E000F0921C0130921E0120921D018FEF9FEF9C
:1018F0008EC9D90112964D915C91139749515109A6
:101900004331510508F5D701C601880F991FAA1F59
:10191000BB1F6C017D016894C0F82C5F3F4F2617F8
:10192000370709F057CF2EE030E030931E012093A7
:101930001D01C0921901D0921A01E0921B01F09290
:101940001C018FE090E063C9D90112964D915C9122
:101950001397495051094930510508F044CFCC0C38
:10196000DD1CEE1CFF1CD9CF90931601809315014E
:10197000DBC9E5E2F1E01382128288EE93E0A0E099
:10198000B0E084839583A683B78384E091E091835C
:10199000808385EC90E09587848784EC90E097873E
:1019A000868780EC90E0918B808B81EC90E0938B2C
:1019B000828B82EC90E0958B848B86EC90E0978B09
:1019C000868B118E128E138E148EE2ECF1E083E082
:1019D000818313820895052E97FB1EF400940E94C4
:1019E000020D57FD07D00E94150D07FC03D04EF4E1
:1019F0000C94020D50954095309521953F4F4F4FD7
:101A00005F4F089590958095709561957F4F8F4FAA
:101A10009F4F08950E94370DA59F900DB49F900D84
:101A2000A49F800D911D11240895A1E21A2EAA1BD6
:101A3000BB1BFD010DC0AA1FBB1FEE1FFF1FA2177E
:101A4000B307E407F50720F0A21BB30BE40BF50B7B
:101A5000661F771F881F991F1A9469F76095709504
:101A6000809590959B01AC01BD01CF010895A29F87
:101A7000B001B39FC001A39F700D811D1124911D62
:101A8000B29F700D811D1124911D0895DB018F936C
:101A90009F930E940A0DBF91AF91A29F800D911D4F
:101AA000A39F900DB29F900D112408950E94370DB1
:101AB000B7FF0895821B930B08950F93083090F0A1
:101AC000982F872F762F652F542F432F322F2227C1
:101AD0000850F4CF220F331F441F551F661F771F76
:101AE000881F991F0A95B2F70F91089597FB10F878
:101AF000169400080F93083098F00850232F342FC5
:101B0000452F562F672F782F892F902DF4CF0594CE
:101B10009795879577956795579547953795279525
:101B20000A95AAF70F910895EE0FFF1F0590F49103
:101B3000E02D09945058BB27AA270E94B20D0C949F
:101B40002C0F0E941E0F38F00E94250F20F039F450
:101B50009F3F19F426F40C941B0F0EF4E095E7FB5D
:101B60000C94150FE92F0E943D0F58F3BA17620726
:101B700073078407950720F079F4A6F50C945F0F9E
:101B80000EF4E0950B2EBA2FA02D0B01B901900198
:101B90000C01CA01A0011124FF27591B99F0593FDC
:101BA00050F4503E68F11A16F040A22F232F342F24
:101BB0004427585FF3CF469537952795A795F04072
:101BC0005395C9F77EF41F16BA0B620B730B840B87
:101BD000BAF09150A1F0FF0FBB1F661F771F881F3F
:101BE000C2F70EC0BA0F621F731F841F48F4879597
:101BF00077956795B795F7959E3F08F0B0CF939589
:101C0000880F08F09927EE0F9795879508950E9401
:101C1000F10E08F481E008950E94200E0C942C0F20
:101C20000E94250F58F00E941E0F40F029F45F3FDC
:101C300029F00C94150F51110C94600F0C941B0F8C
:101C40000E943D0F68F39923B1F3552391F3951B3F
:101C5000550BBB27AA2762177307840738F09F5FCD
:101C60005F4F220F331F441FAA1FA9F335D00E2E3A
:101C70003AF0E0E832D091505040E695001CCAF7A7
:101C80002BD0FE2F29D0660F771F881FBB1F26176A
:101C900037074807AB07B0E809F0BB0B802DBF0141
:101CA000FF2793585F4F3AF09E3F510578F00C9410
:101CB000150F0C94600F5F3FE4F3983ED4F38695C4
:101CC00077956795B795F7959F5FC9F7880F911D31
:101CD0009695879597F90895E1E0660F771F881F1D
:101CE000BB1F621773078407BA0720F0621B730BD0
:101CF000840BBA0BEE1F88F7E09508950E94850EBD
:101D00006894B1110C94600F08950E94450F88F0FB
:101D10009F5798F0B92F9927B751B0F0E1F0660FAF
:101D2000771F881F991F1AF0BA95C9F714C0B130F0
:101D300091F00E945F0FB1E008950C945F0F672F40
:101D4000782F8827B85F39F0B93FCCF3869577951F
:101D50006795B395D9F73EF4909580957095619508
:101D60007F4F8F4F9F4F0895E89409C097FB3EF433
:101D700090958095709561957F4F8F4F9F4F9923D8
:101D8000A9F0F92F96E9BB279395F6958795779556
:101D90006795B795F111F8CFFAF4BB0F11F460FF16
:101DA0001BC06F5F7F4F8F4F9F4F16C0882311F06E
:101DB00096E911C0772321F09EE8872F762F05C082
:101DC000662371F096E8862F70E060E02AF09A951D
:101DD000660F771F881FDAF7880F9695879597F912
:101DE0000895990F0008550FAA0BE0E8FEEF1616AC
:101DF0001706E807F907C0F012161306E407F507FF
:101E000098F0621B730B840B950B39F40A2661F072
:101E1000232B242B252B21F408950A2609F4A14015
:101E2000A6958FEF811D811D089597F99F6780E822
:101E300070E060E008959FEF80EC089500240A941C
:101E40001616170618060906089500240A94121695
:101E50001306140605060895092E0394000C11F4C8
:101E6000882352F0BB0F40F4BF2B11F460FF04C075
:101E70006F5F7F4F8F4F9F4F089557FD9058440FCE
:101E8000551F59F05F3F71F04795880F97FB991FD9
:101E900061F09F3F79F08795089512161306140696
:101EA000551FF2CF4695F1DF08C016161706180623
:101EB000991FF1CF86957105610508940895E894FE
:101EC000BB2766277727CB0197F908950E94790FE2
:101ED0000C942C0F0E941E0F38F00E94250F20F04A
:101EE000952311F00C94150F0C941B0F11240C94D6
:101EF000600F0E943D0F70F3959FC1F3950F50E066
:101F0000551F629FF001729FBB27F00DB11D639FAB
:101F1000AA27F00DB11DAA1F649F6627B00DA11D51
:101F2000661F829F2227B00DA11D621F739FB00DF7
:101F3000A11D621F839FA00D611D221F749F332767
:101F4000A00D611D231F849F600D211D822F762F00
:101F50006A2F11249F5750409AF0F1F088234AF0DD
:101F6000EE0FFF1FBB1F661F771F881F9150504049
:101F7000A9F79E3F510580F00C94150F0C94600F4B
:101F80005F3FE4F3983ED4F3869577956795B795D0
:101F9000F795E7959F5FC1F7FE2B880F911D9695EA
:101FA000879597F9089581E090E0F8940C94D80F04
:041FB000F894FFCFD3
:101FB4000000000023018C00BA007001EB00C9008E
:021FC400DD003E
:00000001FF
