:100000000C9462000C948A000C948A000C948A0070
:100010000C948A000C948A000C948A000C94E201DF
:100020000C948A000C948A000C948A000C948A0028
:100030000C948A000C948A000C948A000C948A0018
:100040000C9498010C948A000C948A000C948A00F9
:100050000C948A000C948A000C948A000C948A00F8
:100060000C948A000C948A000000000024002700F1
:100070002A0000000000250028002B0004040404CE
:100080000404040402020202020203030303030342
:10009000010204081020408001020408102001021F
:1000A00004081020000000080002010000030407FB
:1000B00000000000000000000000000023002600F7
:1000C0002900DB0A11241FBECFEFD8E0DEBFCDBF71
:1000D00011E0A0E0B1E0E6E9FBE102C005900D927D
:1000E000A030B107D9F721E0A0E0B1E001C01D9236
:1000F000AE3EB207E1F710E0C2E6D0E004C02197BF
:10010000FE010E948A0BC136D107C9F70E94010384
:100110000C94C90D0C9400008F929F92AF92BF92E5
:10012000CF92DF92EF92FF920F931F93CF93DF93C3
:10013000FC0120813181E091E001F091E1012E1775
:100140003F070CF04FC0F901EE0FFF1FA091DE0139
:10015000B091DF01EA0FFB1FA080B180217033272F
:100160006901F1E0CF26232B19F42CE93FEF02C0FF
:1001700024E630E07A018B01EC014901840E951EE2
:10018000B401C5010E94BD02892B99F48E0C9F1CFD
:10019000B401C5010E94BD02892B71F4B701680D3D
:1001A000791DC5010E94BD02892BF9F023E030E0E2
:1001B00005C021E030E002C022E030E0F80180819B
:1001C00091810196821793071CF49183808308C064
:1001D000F801118210828881998101969983888320
:1001E000C60105C081E090E002C08FEF9FEFDF9174
:1001F000CF911F910F91FF90EF90DF90CF90BF9024
:10020000AF909F908F900895833081F028F48130D3
:1002100099F08230A1F008958730A9F08830B9F0C4
:100220008430D1F4809180008F7D03C08091800064
:100230008F7780938000089584B58F7702C084B54E
:100240008F7D84BD08958091B0008F7703C0809129
:10025000B0008F7D8093B00008951F93CF93DF93FC
:10026000282F30E0F901EC55FF4F8491F901E05758
:10027000FF4FD491F901E458FF4FC491CC23C1F052
:10028000162F81110E940401EC2FF0E0EE0FFF1FEA
:10029000EE58FF4FA591B4919FB7F894111104C087
:1002A0008C91D095D82302C0EC91DE2BDC939FBFBC
:1002B000DF91CF911F910895CF93DF9390E0FC01E0
:1002C000E057FF4F2491FC01E458FF4F84918823AD
:1002D00061F190E0880F991FFC01E859FF4FC5912B
:1002E000D491FC01EE58FF4FA591B491611109C062
:1002F0009FB7F8948881209582238883EC912E23E0
:100300000BC0623061F49FB7F8948881322F30952A
:1003100083238883EC912E2B2C939FBF06C08FB72D
:10032000F894E8812E2B28838FBFDF91CF91089519
:100330001F920F920FB60F9211242F933F938F931A
:100340009F93AF93BF938091EA019091EB01A091AD
:10035000EC01B091ED013091E90123E0230F2D373D
:1003600020F40196A11DB11D05C026E8230F0296B9
:10037000A11DB11D2093E9018093EA019093EB0147
:10038000A093EC01B093ED018091E5019091E6011D
:10039000A091E701B091E8010196A11DB11D8093E4
:1003A000E5019093E601A093E701B093E801BF91C6
:1003B000AF919F918F913F912F910F900FBE0F9012
:1003C0001F9018951F920F920FB60F9211242F9322
:1003D0003F934F935F936F937F938F939F93AF93CD
:1003E000BF93CF93DF93EF93FF932091010130E010
:1003F000F901EC55FF4F8491F901E057FF4FD4917B
:10040000F901E458FF4FC491CC2379F081110E9487
:100410000401EC2FF0E0EE0FFF1FE854FF4FA59111
:10042000B491EC91ED2381E009F480E02091050185
:10043000309106012F5F3F4F309306012093050155
:1004400090910401953618F096E0909300019091F8
:1004500000019430C9F128F4923069F09330D1F062
:100460005EC0953009F451C0963009F058C091E053
:100470009093D10151C0811152C02091050130915A
:1004800006012436310508F442C01092D1011092C1
:1004900004011CC0813009F042C0E091040191E0E8
:1004A0009E0F90930401F0E0209105013091060128
:1004B000EE0FFF1FE050FF4F308727831092060199
:1004C0001092050194E029C0811117C0E091040148
:1004D00091E09E0F90930401F0E02091050130918E
:1004E0000601EE0FFF1FE050FF4F30872783109269
:1004F00006011092050193E010C020910501309192
:1005000006012536310558F007C0811108C0109248
:1005100006011092050103C095E0909300019091AF
:1005200003019923B9F081110AC080910201882347
:1005300021F08091020161E009C02D9A0BC08091E9
:100540000201882331F08091020160E00E942D01B8
:1005500001C02D98FF91EF91DF91CF91BF91AF91A5
:100560009F918F917F916F915F914F913F912F91CB
:100570000F900FBE0F901F901895CF92DF92EF92C1
:10058000FF92CF93DF93EC01072E000C880B990BA1
:100590000E94AC0C6B017C0120E030E040E45FE3A2
:1005A0000E945C0D20E030E048E452E40E94020C1E
:1005B0000E94740CC617D707D4F020E030E040EA60
:1005C0005FE3C701B6010E945C0D20E030E048E423
:1005D00052E40E94020C20E030E040E85FE30E9419
:1005E000910B0E94740C21E06C177D070CF420E045
:1005F000822F90E0DF91CF91FF90EF90DF90CF902E
:100600000895CF93DF93CDB7DEB72C970FB6F8944C
:10061000DEBF0FBECDBF789484B5826084BD84B543
:10062000816084BD85B5826085BD85B5816085BDED
:1006300080916E00816080936E00109281008091A5
:10064000810082608093810080918100816080932D
:100650008100809180008160809380008091B10052
:1006600084608093B1008091B00081608093B0007D
:1006700080917A00846080937A0080917A00826011
:1006800080937A0080917A00816080937A008091D3
:100690007A00806880937A001092C100F89482E01A
:1006A0008093B0008093B10094E69093B3001092D1
:1006B000B20080937000789480930001109204013E
:1006C0008091010160E00E945C0181E08093030160
:1006D00061E08DE00E945C0110E2212E312C442467
:1006E0004A94542C320127E031E03093DF0120930B
:1006F000DE018091040190E09093E1018093E0019C
:100700008091D10190E09093E3018093E201809188
:100710000001853009F0DDC08091090190910A0146
:10072000885891098D35910588F4809104018430B1
:1007300041F480910B0190910C018097479708F448
:1007400059C180910401843408F03BC180910401B7
:100750008A3108F4B5C18091070190910801843F66
:10076000914078F41092DD011092DC014092D801A2
:100770005092D9016092DA017092DB018BE090E037
:1007800015C78091090190910A0185974B9708F050
:1007900097C1EDE0F1E082E090E0C12CD12C760130
:1007A000AC014F5F5F4F2091040130E042175307C7
:1007B0005CF4DF0112972D913C91275031092730CD
:1007C000310508F461C1CA01019795958795909309
:1007D000DD018093DC010C972CF41092DD01109266
:1007E000DC016EC1C092D801D092D901E092DA0149
:1007F000F092DB0184E090E00AC0C092D801D09270
:10080000D901E092DA01F092DB018BE090E0909365
:10081000D5018093D4018091D8019091D901A09104
:10082000DA01B091DB0181329105A105B10509F42E
:1008300047C078F481319105A105B10519F18032E5
:100840009105A105B105A9F14097A105B105E1F513
:1008500021C0813138E09307A105B10599F030F44A
:1008600080319840A105B105A9F02EC0803228E062
:100870009207A105B105E9F081329840A105B105C3
:10088000F9F022C08091D2019091D301019797FD98
:1008900017C00AC08091D2019091D3010196853191
:1008A000910514F084E190E09093D3018093D201FC
:1008B0000BC0A4E1B0E0B093D301A093D20104C077
:1008C0001092D3011092D20182E080930001109225
:1008D00004018091D2019091D301889FD001899F1A
:1008E000B00DB00D11242FEF30E00E944C0B20E929
:1008F00031E040E050E00E94E10AF22EE32E022FA8
:10090000132F61E085E00E945C010115110511F4CF
:1009100060E004C00F3F110529F461E085E00E940A
:100920002D0147C0E9EAF0E0E491E33009F148F431
:10093000E130C9F0E230C1F584B5806284BDF8BC15
:1009400038C0E73009F1E83039F1E43069F58091D9
:1009500080008062809380008F2D9E2D90938B006D
:1009600080938A0026C084B5806884BDF7BC21C00E
:10097000809180008068809380008F2D9E2D9093C1
:1009800089008093880015C08091B00080688093B2
:10099000B000F092B3000DC08091B00080628093EF
:1009A000B000F092B40005C0003811050CF0B5CFCE
:1009B000AFCF80E090E0892B09F495CE0E94000033
:1009C00092CE80910B0190910C01825491098E97E7
:1009D00008F0BCCE80E090E040E050E0BA01FC01BD
:1009E000E35FFE4F208131812950310929303105E3
:1009F000C0F0ACCE80910D0190910E01099709973E
:100A000008F09FCE1092DD011092DC014092D801D7
:100A10005092D9016092DA017092DB0183E090E09C
:100A2000C5C5FC01E15FFE4F2081318127513109AD
:100A300022313105E0F4440F551F661F771F4160D6
:100A400004968038910559F63092DD012092DC0140
:100A50004093D8015093D9016093DA017093DB0180
:100A6000A3E0B0E0B093D501A093D401D4CE20810F
:100A70003181265031092730310508F067CE440F07
:100A8000551F661F771FDCCF20813181235131092B
:100A90002F30310548F4CC0CDD1CEE1CFF1C689493
:100AA000C0F8029634967CCE208131812A503109DB
:100AB0002930310528F4CC0CDD1CEE1CFF1CF1CFD5
:100AC000809104018A3108F45AC080910701909105
:100AD00008018032934008F445CE8091090190913D
:100AE0000A01C697869708F04AC080910B01909141
:100AF0000C01C697869708F042C0EFE0F1E023E0D2
:100B000030E0C12CD12C7601C9010196409104013D
:100B100050E08417950754F4DF0112974D915C91D2
:100B20004C5051094B30510588F001C0C901019763
:100B3000959587959093DD018093DC010C970CF0DF
:100B40005CCE1092DD011092DC0119C08081918190
:100B500085974B9750F4CC0CDD1CEE1CFF1C689461
:100B6000C0F82E5F3F4F3496CFCF808191810C9794
:100B70000A9728F4CC0CDD1CEE1CFF1CF2CF8091F0
:100B80000401823208F458C08091090190910A0151
:100B90000697079708F050C0EDE0F1E082E090E0A2
:100BA000C12CD12C76019C012F5F3F4F4091040155
:100BB00050E024173507CCF4DF0112974D915C917A
:100BC00011974E5151094731510540F5CC0CDD1CB0
:100BD000EE1CFF1C6894C0F840815181349643504C
:100BE00051094530510530F1C90101979595879517
:100BF0009093DD018093DC0140972CF41092DD018D
:100C00001092DC0119C0C092D801D092D901E092B3
:100C1000DA01F092DB018CE090E0F9CD4D915C912E
:100C20004C5051094B30510538F4CC0CDD1CEE1CF6
:100C3000FF1CD2CF0296B7CF1C821B82E1E0F0E00E
:100C4000FA83E983809104018D3078F41C821B8241
:100C500021E030E03A8329838091E0019091E10125
:100C6000181619060CF46CC0C3C049E753E0BE0166
:100C70006D5F7F4FCE0101960E948C00892B31F76A
:100C800049E753E0BE016D5F7F4FCE0101960E94A0
:100C90008C000197D9F649E753E0BE016D5F7F4FA5
:100CA000CE0101960E948C00892B81F6812C912C1B
:100CB000540100E010E08091040190E029813A8124
:100CC0002817390774F549E753E0BE016D5F7F4F80
:100CD000CE0101960E948C007C0149E753E0BE01E1
:100CE0006D5F7F4FCE0101960E948C0031E0E316CC
:100CF000F10451F4892B09F0A9CF880C991CAA1C86
:100D0000BB1C689480F80AC0EF2809F09FCF0197B8
:100D100009F09CCF880C991CAA1CBB1C0F5F1F4FAD
:100D2000CACF1093DD010093DC018092D80190922C
:100D3000D901A092DA01B092DB0181E090E067CDA9
:100D4000E091DE01F091DF0182E090E09A838983F7
:100D50008281938189974E9708F04AC023E030E062
:100D60003A832983848195810B970A9708F040C0C4
:100D70004CEB51E0BE016D5F7F4FCE0101960E94AA
:100D80008C00892BA9F54CEB51E0BE016D5F7F4FC4
:100D9000CE0101960E948C00019751F5812C912C77
:100DA000540100E010E02091E0013091E1018981DF
:100DB0009A81821793070CF026C14CEB51E0BE01DB
:100DC0006D5F7F4FCE0101960E948C007C01033045
:100DD000110509F0E2C04CEB51E0BE016D5F7F4FA1
:100DE000CE0101960E948C00E816F90609F4D5C0E0
:100DF000E091DE01F091DF0182819381C6978697B1
:100E0000E0F4848195814B974597B8F4DF011696FD
:100E10007F0136ECE30EF11C20E030E040E050E0D2
:100E200060E070E080E090E00D911C911197095016
:100E300011090830110508F4F5C0809104018933C7
:100E400070F182819381895791098335910508F466
:100E500025C125C0D90112966D917C9113976651D9
:100E600071096131710508F045C1D701C601880FCC
:100E7000991FAA1FBB1F6C017D016894C0F84E5FCB
:100E80005F4F2C5F3F4F4B33510509F416C1D90119
:100E90006D917C916A50710969307105D8F2809129
:100EA0000401823231F4828193810A97099708F410
:100EB00031C1828193818957910983359105D0F49D
:100EC000809104018132B0F084819581CA9789971D
:100ED00088F49F012A5F3F4FC12CD12C760143E05B
:100EE00050E0D9016D917C916A50710969307105AA
:100EF00008F42EC1828193818C549109C59778F4AE
:100F000080910401843031F48481958180974797E2
:100F100008F480C180910401843408F062C180919A
:100F20000401863460F1828193810C970B9708F459
:100F3000BEC125C0D90112966D917C9113976E5157
:100F400071096731710508F0E8C1D701C601880F42
:100F5000991FAA1FBB1F6C017D016894C0F84E5FEA
:100F60005F4F2C5F3F4F4534510509F4BBC1D90198
:100F70006D917C916C5071096B307105D8F2809144
:100F80000401883508F431C2828193818558910922
:100F90008B35910508F4D1C128C24CEB51E0BE015C
:100FA0006D5F7F4FCE0101960E948C006C01033073
:100FB000110569F44CEB51E0BE016D5F7F4FCE012E
:100FC00001960E948C00C816D90609F011CFE114D1
:100FD000F10459F4CA94CD2809F00ACF880C991C61
:100FE000AA1CBB1C689480F80BC0EA94EF2809F097
:100FF000FFCECD2809F0FCCE880C991CAA1CBB1C86
:101000000F5F1F4FD0CE1093DD010093DC01809263
:10101000D8019092D901A092DA01B092DB0182E06E
:1010200090E0F5CB12960D911C9113970151110987
:101030000D30110528F501E00E94530B2160149634
:10104000AE15BF0509F0F0CE2093D8013093D90139
:101050004093DA015093DB0100E20E946E0B209373
:10106000D6013093D701E5E0F0E0F093D501E093AD
:10107000D40120E330E03093DD012093DC01CBCBC1
:1010800012960D911C91139704501109053011050A
:1010900008F0D3CE01E00E94530BD1CF848195811B
:1010A000CA97899708F0FBCE9F012A5F3F4FC12C5A
:1010B000D12C760143E050E0EACE9F012A583F4F01
:1010C000D9012D913C912A5031092930310508F080
:1010D000E6CE2CE130E03093DD012093DC01C092BC
:1010E000D801D092D901E092DA01F092DB018AE0D6
:1010F00090E08DCBD90112966D917C91139766503B
:1011000071096730710508F0CACECC0CDD1CEE1CED
:10111000FF1CB5CE20910401CF01820F911D820FDB
:10112000911DDC0112978D919C910A97099708F007
:10113000C0CE1092DD011092DC014092D801509295
:10114000D9016092DA017092DB0186E090E02EC254
:10115000D90112966D917C91139766517109613195
:10116000710578F5D701C601880F991FAA1FBB1F0B
:101170006C017D016894C0F84E5F5F4F2C5F3F4F5C
:101180004332510509F0ADCE9F012A5B3F4FD90193
:101190002D913C912A5031092930310508F0AACE11
:1011A000E0E1F0E0F093DD01E093DC01C092D801D2
:1011B000D092D901E092DA01F092DB0186E090E072
:1011C00026CBD90112966D917C91139766507109C7
:1011D0006730710508F08ECECC0CDD1CEE1CFF1CB8
:1011E000CBCF8481958189549109C39708F097CE1C
:1011F0009F012A5F3F4FBF016A577F4FC12CD12CFF
:101200007601D9014D915C91495051094930510500
:10121000B0F085CE868197810997099708F07ACE3C
:101220001092DD011092DC014092D8015092D90158
:101230006092DA017092DB0187E090E0B7C1D901DA
:1012400012964D915C9113974651510941315105C8
:10125000F0F4D701C601880F991FAA1FBB1F6C01AC
:101260007D016894C0F82C5F3F4F6217730749F601
:101270003092DD012092DC01C092D801D092D901D8
:10128000E092DA01F092DB0187E090E0C0CAD90178
:1012900012964D915C911397465051094730510574
:1012A00008F03DCECC0CDD1CEE1CFF1CDCCF848195
:1012B00095810997099708F062CE868197818C976E
:1012C0004F9708F05CCE8085918589974D9708F0FF
:1012D00056CE9F01265F3F4FC12CD12C760145E0B1
:1012E00050E045CE9F0126573F4FD9012D913C91AB
:1012F0002C5031092B30310508F041CE3092DD0100
:101300002092DC01C092D801D092D901E092DA019A
:10131000F092DB0188E090E07ACAD90112966D91D3
:101320007C911397695071096930710508F027CED7
:10133000CC0CDD1CEE1CFF1C12CE848195818254E6
:1013400091098E9708F051C08F01045C1F4F8DE109
:1013500090E020E030E04091040150E04450510919
:1013600084179507ACF4A80142505109DA014D9158
:101370005C91495051094830510510F136C0D801EF
:101380004D915C91485151094231510558F1CB01C1
:101390000197959587959093DD018093DC018A975D
:1013A00024F1C901330FAA0BBB0B8093D801909392
:1013B000D901A093DA01B093DB0189E090E027CA5C
:1013C000BC016F5F7F4FD8014D915C91475051092F
:1013D00047305105A0F6220F331F216002960C5FA3
:1013E0001F4FB9CF220F331FF9CF809104018032F4
:1013F000E1F48281938106970697B8F48481958100
:101400000997099790F49F012A5F3F4FBF01625CE3
:101410007F4FC12CD12C7601D9014D915C91465062
:1014200051094630510508F486C02091E001309101
:10143000E10138872F83263031050CF445CA8F012E
:101440000E5F1F4F83E090E09E838D8395ECC92E45
:101450009DE9D92E9CE1E92E91E8F92ED801149648
:101460006D917C911597AD90BC9080E090E00E94CA
:10147000AA0C69877A878B879C87B50180E090E00A
:101480000E94AA0C4B015C012DEC3CEC4CE45FE3A8
:101490000E945C0D9B01AC0169857A858B859C85DA
:1014A0000E94FD0B87FD19C02DEC3CEC4CE45FE382
:1014B00069857A858B859C850E945C0D9B01AC01BA
:1014C000C501B4010E94FD0BE82F880FFF0BEE272A
:1014D000FF0FEE1FFF27319602C0E0E0F0E0A7010A
:1014E000960163E971E080E091E00E943C0B6F019E
:1014F000FF0FEE08FF08C626D726E826F926ED815D
:10150000FE813196FE83ED830E5F1F4F2F8138855C
:101510002E173F0709F0A2CFC092D801D092D9016F
:10152000E092DA01F092DB013092DD012092DC01E1
:101530008FEF9FEF6CC9D90112964D915C91139773
:10154000495151094331510508F5D701C601880FAA
:10155000991FAA1FBB1F6C017D016894C0F82C5F06
:101560003F4F2617370709F057CF2EE030E0309372
:10157000DD012093DC01C092D801D092D901E09224
:10158000DA01F092DB018FE090E041C9D9011296B7
:101590004D915C911397495051094930510508F01C
:1015A00044CFCC0CDD1CEE1CFF1CD9CF9093D50191
:1015B0008093D40189C9E0E0F1E083E08183138264
:1015C0000895052E97FB1EF400940E94F80A57FD1B
:1015D00007D00E940B0B07FC03D04EF40C94F80AC2
:1015E00050954095309521953F4F4F4F5F4F08954F
:1015F00090958095709561957F4F8F4F9F4F08957F
:101600000E942D0BA59F900DB49F900DA49F800D5F
:10161000911D11240895A1E21A2EAA1BBB1BFD01E6
:101620000DC0AA1FBB1FEE1FFF1FA217B307E407C1
:10163000F50720F0A21BB30BE40BF50B661F771F19
:10164000881F991F1A9469F76095709580959095F9
:101650009B01AC01BD01CF010895A29FB001B39FD2
:10166000C001A39F700D811D1124911DB29F700DAB
:10167000811D1124911D0895DB018F939F930E947A
:10168000000BBF91AF91A29F800D911DA39F900D64
:10169000B29F900D112408950E942D0BB7FF08955D
:1016A000821B930B08950F93083090F0982F872F8B
:1016B000762F652F542F432F322F22270850F4CF37
:1016C000220F331F441F551F661F771F881F991F46
:1016D0000A95B2F70F91089597FB10F81694000839
:1016E0000F93083098F00850232F342F452F562F92
:1016F000672F782F892F902DF4CF05949795879594
:101700007795679557954795379527950A95AAF741
:101710000F910895EE0FFF1F0590F491E02D0994AD
:101720005058BB27AA270E94A80B0C94220D0E9498
:10173000140D38F00E941B0D20F039F49F3F19F46E
:1017400026F40C94110D0EF4E095E7FB0C940B0DB0
:10175000E92F0E94330D58F3BA1762077307840705
:10176000950720F079F4A6F50C94550D0EF4E0954C
:101770000B2EBA2FA02D0B01B90190010C01CA014B
:10178000A0011124FF27591B99F0593F50F4503EF6
:1017900068F11A16F040A22F232F342F4427585FE8
:1017A000F3CF469537952795A795F0405395C9F700
:1017B0007EF41F16BA0B620B730B840BBAF09150B8
:1017C000A1F0FF0FBB1F661F771F881FC2F70EC057
:1017D000BA0F621F731F841F48F48795779567952A
:1017E000B795F7959E3F08F0B0CF9395880F08F016
:1017F0009927EE0F9795879508950E94E70C08F4B6
:1018000081E008950E94160C0C94220D0E941B0D7D
:1018100058F00E94140D40F029F45F3F29F00C9419
:101820000B0D51110C94560D0C94110D0E94330D9B
:1018300068F39923B1F3552391F3951B550BBB27FF
:10184000AA2762177307840738F09F5F5F4F220F44
:10185000331F441FAA1FA9F335D00E2E3AF0E0E83B
:1018600032D091505040E695001CCAF72BD0FE2F85
:1018700029D0660F771F881FBB1F26173707480719
:10188000AB07B0E809F0BB0B802DBF01FF279358D1
:101890005F4F3AF09E3F510578F00C940B0D0C947D
:1018A000560D5F3FE4F3983ED4F3869577956795A0
:1018B000B795F7959F5FC9F7880F911D9695879506
:1018C00097F90895E1E0660F771F881FBB1F621725
:1018D00073078407BA0720F0621B730B840BBA0BE3
:1018E000EE1F88F7E09508950E947B0C6894B11173
:1018F0000C94560D08950E943B0D88F09F5798F068
:10190000B92F9927B751B0F0E1F0660F771F881F04
:10191000991F1AF0BA95C9F714C0B13091F00E941E
:10192000550DB1E008950C94550D672F782F882739
:10193000B85F39F0B93FCCF3869577956795B39545
:10194000D9F73EF490958095709561957F4F8F4FB4
:101950009F4F0895E89409C097FB3EF490958095B9
:10196000709561957F4F8F4F9F4F9923A9F0F92F65
:1019700096E9BB279395F695879577956795B795E3
:10198000F111F8CFFAF4BB0F11F460FF1BC06F5FC9
:101990007F4F8F4F9F4F16C0882311F096E911C0DB
:1019A000772321F09EE8872F762F05C0662371F0FC
:1019B00096E8862F70E060E02AF09A95660F771F10
:1019C000881FDAF7880F9695879597F90895990FEC
:1019D0000008550FAA0BE0E8FEEF16161706E807F9
:1019E000F907C0F012161306E407F50798F0621B1A
:1019F000730B840B950B39F40A2661F0232B242BEF
:101A0000252B21F408950A2609F4A140A6958FEF0D
:101A1000811D811D089597F99F6780E870E060E05F
:101A200008959FEF80EC089500240A941616170677
:101A300018060906089500240A94121613061406BF
:101A400005060895092E0394000C11F4882352F022
:101A5000BB0F40F4BF2B11F460FF04C06F5F7F4FDA
:101A60008F4F9F4F089557FD9058440F551F59F0C1
:101A70005F3F71F04795880F97FB991F61F09F3F7B
:101A800079F087950895121613061406551FF2CFA4
:101A90004695F1DF08C0161617061806991FF1CFF4
:101AA00086957105610508940895E894BB2766271B
:101AB0007727CB0197F908950E946F0D0C94220DA2
:101AC0000E94140D38F00E941B0D20F0952311F098
:101AD0000C940B0D0C94110D11240C94560D0E94B6
:101AE000330D70F3959FC1F3950F50E0551F629F22
:101AF000F001729FBB27F00DB11D639FAA27F00D67
:101B0000B11DAA1F649F6627B00DA11D661F829F8D
:101B10002227B00DA11D621F739FB00DA11D621F72
:101B2000839FA00D611D221F749F3327A00D611D8F
:101B3000231F849F600D211D822F762F6A2F112471
:101B40009F5750409AF0F1F088234AF0EE0FFF1FA4
:101B5000BB1F661F771F881F91505040A9F79E3FFB
:101B6000510580F00C940B0D0C94560D5F3FE4F37F
:101B7000983ED4F3869577956795B795F795E79551
:101B80009F5FC1F7FE2B880F911D9695879597F95A
:061B90000895F894FFCF58
:00000001FF
